:100000000C9473000C9488000C9488000C94880065
:100010000C9488000C9488000C9488000C94880040
:100020000C9488000C9488000C9488000C94880030
:100030000C9488000C9488000C9488000C94880020
:100040000C9488000C9488000C9488000C94880010
:100050000C948800D7014401DB01440144014401B0
:1000600050015F016E017D018C019B01AA014401D9
:100070004401440144014401440144014401440158
:100080004401440144014401440144014401440148
:100090004401440144014401440144014401440138
:1000A0004401440144014401440144014401440128
:1000B0004401440144014401440144014401440118
:1000C0004401440144014401C80144014401440184
:1000D00044014401440144014401440144014401F8
:1000E00044014401B90111241FBECFE5D8E0DEBFB1
:1000F000CDBF11E0A0E6B0E0E2E2F4E002C005907E
:100100000D92AA30B107D9F70E942C010C940F026E
:100110000C94000092B39F70282F207F922B92BBEB
:100120009298939A35E03A95F1F700009398EFE8AA
:10013000F1E03197F1F700C0000022B32F70F0E139
:100140008F9FC0011124822B82BB939A35E03A9590
:10015000F1F7000093988FE891E00197F1F700C064
:100160000000089581B38C6081BB81B3806F81BB37
:1001700093988FE39FE10197F1F700C0000082E3BD
:100180000E948A0088E20E948A008CE00E948A0015
:1001900081E00E948A008FE39FE10197F1F700C0A0
:1001A0000000089592B39F70282F207F922B92BB5E
:1001B000929A939A35E03A95F1F700009398EFE818
:1001C000F1E03197F1F700C0000022B32F70F0E1A9
:1001D0008F9FC0011124822B82BB939A35E03A9500
:1001E000F1F7000093988FE891E00197F1F700C0D4
:1001F000000008950F931F93CF93FC018081882303
:1002000059F08F01C0E00E94D200CF5FF801EC0FDF
:10021000F11D80818111F7CFCF911F910F9108952A
:10022000CF93DF9300D0CDB7DEB790E8998390EC01
:100230009A83FE01E60FF11D81509081890F0E9483
:100240008A008FE891E00197F1F700C000000F905D
:100250000F90DF91CF9108950E94B2008DE40E942B
:10026000DF01C4980E94FB0161E081E00E9410015F
:1002700080E690E00E94FA0062E081E00E941001B6
:100280008FE690E00E94FA000E94050290E0FC01D7
:10029000BB97E934F105C0F7E65DFF4F0C94090206
:1002A00081E30E94F60181E00E948A0061E082E021
:1002B0000E94100182E890E00E94FA00E5CF82E3FC
:1002C0000E94F60161E082E00E94100181E00E943C
:1002D0008A008FE890E00E94FA00D6CF83E30E9464
:1002E000F60161E082E00E94100181E00E948A0034
:1002F0008DE990E00E94FA00C7CF84E30E94F601E6
:1003000061E082E00E94100181E00E948A008AEA96
:1003100090E00E94FA00B8CF85E30E94F10161E00D
:1003200082E00E94100181E00E948A0088EB90E048
:100330000E94FA00A9CF86E30E94F60161E082E004
:100340000E94100181E00E948A0085EC90E00E94EA
:10035000FA009ACF87E30E94F60161E082E00E94F2
:10036000100181E00E948A0083ED90E00E94FA0073
:100370008BCF83E70E94F60161E082E00E941001CA
:1003800081E00E948A008CEE90E00E94FA007CCF0F
:1003900085E60E94F60161E082E00E94100181E0A2
:1003A0000E948A008AEF90E00E94FA006DCF8BE2F3
:1003B0000E94F60169CF8DE20E94F60165CF8D346F
:1003C00019F0833551F0089587B3806B87BBBE98D1
:1003D0008DB180658DB9C49A0895BD98BE9A6E9A04
:1003E00008958FB9779BFECF8FB108958FB9779B12
:1003F000FECF8FB108958AB188618AB980B58668C9
:1004000080BD87E689B910BC08955F9BFECF8CB193
:100410000895EE0FFF1F0590F491E02D0994F894D4
:02042000FFCF0C
:1004220041686D6564204D61686D6F75642000538D
:100432006D61727420486F6D652050726F6A6563DA
:10044200740020524F4F4D31204953204F4E00200F
:10045200524F4F4D31204953204F46460020524FB4
:100462004F4D32204953204F4E0020524F4F4D32B4
:10047200204953204F46460020524F4F4D332049CA
:1004820053204F4E0020524F4F4D33204953204F9F
:1004920046460020526563656976696E6720546539
:1004A2006D70657261747572653A2000204D6F74CB
:1004B2006F72206973204F4E2000204D6F746F724F
:0A04C200206973204F464620000019
:00000001FF
