S0180000536D6172745F486F6D655F536C6176652E73726563C3
S11300000C9473000C9488000C9488000C94880061
S11300100C9488000C9488000C9488000C9488003C
S11300200C9488000C9488000C9488000C9488002C
S11300300C9488000C9488000C9488000C9488001C
S11300400C9488000C9488000C9488000C9488000C
S11300500C948800A2016501EF0165016501650149
S1130060710173017501770179017B017D016501DE
S1130070650165016501650165016501650165014C
S1130080650165016501650165016501650165013C
S1130090650165016501650165016501650165012C
S11300A0650165016501650165016501650165011C
S11300B0650165016501650165016501650165010C
S11300C065016501650165019C01650165016501C5
S11300D065016501650165016501650165016501EC
S11300E0650165018C0111241FBECFE5D8E0DEBF98
S11300F0CDBF10E0A0E6B0E0E8E0F9E002C0059072
S11301000D92AA3AB107D9F70E9445010C948204D2
S11301100C94000087B1806C87B986B1866886B973
S1130120089597B1907E8F71892B87B9369A349B45
S1130130FECF349A84B125B190E0922B089592B306
S11301409F70282F207F922B92BB9298939A35E030
S11301503A95F1F700009398EFE8F1E03197F1F761
S113016000C0000022B32F70F0E18F9FC001112462
S1130170822B82BB939A35E03A95F1F7000093986D
S11301808FE891E00197F1F700C00000089581B372
S11301908C6081BB81B3806F81BB93988FE39FE1B7
S11301A00197F1F700C0000082E30E949F0088E2FB
S11301B00E949F008CE00E949F0081E00E949F00AB
S11301C08FE39FE10197F1F700C00000089592B317
S11301D09F70282F207F922B92BB929A939A35E09E
S11301E03A95F1F700009398EFE8F1E03197F1F7D1
S11301F000C0000022B32F70F0E18F9FC0011124D2
S1130200822B82BB939A35E03A95F1F700009398DC
S11302108FE891E00197F1F700C0000008950F9373
S11302201F93CF93FC018081882359F08F01C0E094
S11302300E94E700CF5FF801EC0FF11D808181116E
S1130240F7CFCF911F910F910895CF93DF9300D0F3
S1130250CDB7DEB790E8998390EC9A83FE01E60F60
S1130260F11D81509081890F0E949F008FE891E0D9
S11302700197F1F700C000000F900F90DF91CF912C
S1130280089581E00E949F0008950E94C70083E5BD
S11302900E9446020E948A000E945C0284B3806E1F
S11302A084BB87B3836087BB83B7836683BFC0E0A7
S11302B0D0E00F2EFFE7DF2EF02D0F2EFFEBEF2EF9
S11302C0F02DFF24FA940FE310E00E94580290E00E
S11302D0FC01BB97E934F105C0F7E65DFF4F0C94D0
S11302E06804AD9AF2CFAD98F0CFAE9AEECFAE9847
S11302F0ECCFAF9AEACFAF98E8CF83E00E949100A9
S11303009695879596958795BC0180E090E00E942C
S1130310C6030E946302F1CF1CBEC19AC0980E941A
S1130320410161E081E00E94250180E690E00E94A5
S11303300F01C0E0D1E0C9CF1CBEC098C198C0E095
S1130340D12FC3CFD1110BC00E94410161E081E0E4
S11303500E9425018BE690E00E940F01B6CFCF5F8B
S1130360C230A9F018F4C13031F034C0C330D9F030
S1130370C43029F12FC00CBF0E94410161E081E02B
S11303800E9425018CE790E00E940F0123C0DCBE8F
S11303900E94410161E081E00E94250187E890E02C
S11303A00E940F0117C0ECBE0E94410161E081E090
S11303B00E94250182E990E00E940F010BC0FCBE5F
S11303C00E94410161E081E00E9425018DE990E0F5
S11303D00E940F01C53008F478CFC4E076CFD11164
S11303E00BC00E94410161E081E00E9425018BE67F
S11303F090E00E940F0169CFC150C23019F128F476
S1130400CC2341F0C13091F060CFC33039F1C43016
S113041089F15BCF1CBE0E94410161E081E00E9432
S1130420250180E690E00E940F014FCF0CBF0E948F
S1130430410161E081E00E9425018CE790E00E9487
S11304400F0143CFDCBE0E94410161E081E00E94C4
S1130450250187E890E00E940F0137CFECBE0E948F
S1130460410161E081E00E94250182E990E00E945F
S11304700F012BCFFCBE0E94410161E081E00E948C
S113048025018DE990E00E940F011FCF8D3419F0F2
S1130490833551F0089587B3806B87BBBE988DB1C7
S11304A080658DB9C49A0895BD98BE9A6E9A0895D0
S11304B0779BFECF8FB1089584B38F6084BB8AB3DA
S11304C086608ABB0895CF92DF92EF92FF920F93DA
S11304D01F93CF93DF936B017C010E9490030AE08A
S11304E010E0CB01B8010E945404EC01BC01772751
S11304F0072E000C880B990B0E94C8039B01AC01CA
S1130500C701B6010E94B10225B3207FC22BC5BB2F
S1130510DA9AEFE1FEE43197F1F700C00000DA98CF
S1130520C5B320E030E040E251E40E941E030E9483
S11305309003CB01B8010E945404C07F8C2B85BB6F
S1130540D99A8FE19EE40197F1F700C00000D99891
S1130550DF91CF911F910F91FF90EF90DF90CF909B
S113056008955058BB27AA270E94C9020C941A0464
S11305700E940C0438F00E94130420F039F49F3FC9
S113058019F426F40C9409040EF4E095E7FB0C949A
S11305900304E92F0E942B0458F3BA176207730768
S11305A08407950720F079F4A6F50C944D040EF415
S11305B0E0950B2EBA2FA02D0B01B90190010C016F
S11305C0CA01A0011124FF27591B99F0593F50F487
S11305D0503E68F11A16F040A22F232F342F4427DF
S11305E0585FF3CF469537952795A795F0405395D7
S11305F0C9F77EF41F16BA0B620B730B840BBAF0A7
S11306009150A1F0FF0FBB1F661F771F881FC2F711
S11306100EC0BA0F621F731F841F48F48795779525
S11306206795B795F7959E3F08F0B0CF9395880FDF
S113063008F09927EE0F9795879508950E94320345
S11306400C941A040E94130458F00E940C0440F005
S113065029F45F3F29F00C94030451110C944E04C7
S11306600C9409040E942B0468F39923B1F35523D5
S113067091F3951B550BBB27AA27621773078407B1
S113068038F09F5F5F4F220F331F441FAA1FA9F347
S113069035D00E2E3AF0E0E832D091505040E69535
S11306A0001CCAF72BD0FE2F29D0660F771F881F96
S11306B0BB1F261737074807AB07B0E809F0BB0B89
S11306C0802DBF01FF2793585F4F3AF09E3F51059D
S11306D078F00C9403040C944E045F3FE4F3983ECA
S11306E0D4F3869577956795B795F7959F5FC9F786
S11306F0880F911D9695879597F90895E1E0660F07
S1130700771F881FBB1F621773078407BA0720F07F
S1130710621B730B840BBA0BEE1F88F7E0950895E8
S11307200E9497036894B1110C944E0408950E949A
S1130730330488F09F5798F0B92F9927B751B0F038
S1130740E1F0660F771F881F991F1AF0BA95C9F751
S113075014C0B13091F00E944D04B1E008950C949E
S11307604D04672F782F8827B85F39F0B93FCCF351
S1130770869577956795B395D9F73EF490958095CE
S1130780709561957F4F8F4F9F4F0895E89409C0EE
S113079097FB3EF490958095709561957F4F8F4FB0
S11307A09F4F9923A9F0F92F96E9BB279395F695C6
S11307B0879577956795B795F111F8CFFAF4BB0F44
S11307C011F460FF1BC06F5F7F4F8F4F9F4F16C0A8
S11307D0882311F096E911C0772321F09EE8872F32
S11307E0762F05C0662371F096E8862F70E060E0EE
S11307F02AF09A95660F771F881FDAF7880F969567
S1130800879597F9089597F99F6780E870E060E00D
S113081008959FEF80EC089500240A941616170695
S113082018060906089500240A94121613061406DD
S113083005060895092E0394000C11F4882352F040
S1130840BB0F40F4BF2B11F460FF04C06F5F7F4FF8
S11308508F4F9F4F089557FD9058440F551F59F0DF
S11308605F3F71F04795880F97FB991F61F09F3F99
S113087079F087950895121613061406551FF2CFC2
S11308804695F1DF08C0161617061806991FF1CF12
S113089086957105610508940895E894BB27662739
S11308A07727CB0197F9089597FB072E16F4009448
S11308B007D077FD09D00E946E0407FC05D03EF4F2
S11308C0909581959F4F0895709561957F4F0895F8
S11308D0EE0FFF1F0590F491E02D0994AA1BBB1B9A
S11308E051E107C0AA1FBB1FA617B70710F0A61B2C
S11308F0B70B881F991F5A95A9F780959095BC014D
S10B0900CD010895F894FFCF26
S1130908205370656564203D203000205475726E54
S1130918204F4E206D6F746F722121002053706533
S11309286564207832350020537065656420783515
S11309383000205370656564207837350020537083
S10D0948656564207831303000004A
S9030000FC
